:03000000020CDF10
:0C0CDF00787FE4F6D8FD758175020D26C3
:100FCA002564003139322E3136382E35302E313102
:100FDA003A38303836002F77726974653F64623D5B
:100FEA0074656C656772616600000041542B434961
:100FFA005053544152543D22544350222C223139E9
:10100A00322E3136382E35302E3131222C383038C6
:09101A00360D0A0062746E5F00DD
:1014A4008F148D15EF64027003121533E514640371
:0614B40070031215362240
:040C2C008F438D4421
:100C300078167C007D017BFF7A10791E7E007F058F
:100C4000120452E490001BF0A3F0E544243090001D
:100C50001AF0E5442401FFE433FE7C007D641204B5
:100C6000B3AC12AD13CFCDCFCECCCE1204C5A3EC16
:100C7000F0A3EDF07552FF75530F7554CA8C55F5FE
:100C8000567B017A00791212008290000074FFF006
:100C9000A3740FF0A374CDF0A374FFF0A3740FF04E
:100CA000A374E0F090000F74FFF0A3740FF0A3742E
:100CB000F3F0F990000674FFF0A3740FF0A3E9F0CD
:100CC000A37401F0A37400F0A37416F0A37401F0F0
:0F0CD000A37400F0A37412F07E007F000208717D
:09151F007C0C7D2C7F030211F10C
:1012A3007E137F0C7BFF7A0F79F5754827754910FC
:1012B300E4F54AF54B754C01120B727E0F7F667B8A
:1012C300007A0079007548617549A8754A00754B25
:0712D3000A754C01020B72C9
:1014D00012147112136D1212A312151F121530126D
:0414E0000A9C80FBE7
:0400030002160000E1
:1014BA0075985253877F438920758DFD758BFDD2B0
:0614CA008ED299C2AC2293
:081528008F993099FDC2992250
:101397005389F0438901C2A9E4FDFCC3ED9FEC9E8C
:1013A7005016758CFC758A18C28DD28C308DFDC293
:0813B7008C0DBD00010C80E368
:0113BF00220B
:0B1514008E168F17E517451670FA229F
:06133D008B4B8A4C894D28
:10134300E4FFAB4BAA4CA94D120478FD3395E04D55
:1013530060178F82758300E41204910F7401254D89
:09136300F54DE4354CF54C80D940
:01136C00225E
:06126B008B558A568957DD
:1012710012148DAB58AA59A95A120478FEFD339560
:10128100E04D601DAB55AA56A9578F82758300EEBC
:101291001204917401255AF55AE43559F5590F8014
:0112A100D27A
:0112A2002229
:10148D00E4FF120478FD3395E04D600A0F740129D5
:06149D00F9E43AFA80ECCC
:0114A3002226
:100DF6008B518A528953AB4EAA4FA9508B548A55B0
:100E0600895612148DAE07AB51AA52A95312148DEE
:100E1600EFC39E5002C322AB51AA52A953120478C3
:100E2600FFFD3395E04D6038AB54AA55A956120420
:100E360078FEFD3395E04D6027EFB5060D7401256C
:100E460056F556E43555F5558009854E54854F556A
:100E560085505674012553F553E43552F55280B743
:100E6600AB54AA55A956120478FF3395E04F700388
:040E7600D38001C361
:010E7A002255
:0400070002120000E1
:100A9C00E4F543F543C3E543940474809480400328
:100AAC00020B6CE54375F00CA424A3F582E434002E
:100ABC00F583E0D39400748094805003020B67E5B7
:100ACC004375F00CA424A4F582E43400F583E070A3
:100ADC0003020B67E54375F00CA4249DF582E43406
:100AEC0000F583E0FEA3E04E6071E54375F00CA4C5
:100AFC0024A3F582E43400F583E014F0E54375F0AB
:100B0C000CA424A6F582E43400F583A3E0FAA3E058
:100B1C00AE02FFE54375F00CA4249DF582E434008D
:100B2C00F583E0FCA3E0FDF5828C83120515E5430B
:100B3C0075F00CA424A1F582E43400F583E0FEA347
:100B4C00E04E7017E54375F00CA424A3F582E43451
:100B5C0000F583E07005AF43120D6B0543020AA14B
:060B6C0012002202001E2F
:040B72008E438F44DB
:100B7600E4FFEF75F00CA4249DF582E43400F583C0
:100B8600E0FCA3E04C600DEFC394047480948050A5
:100B9600030F80DEEF64047006750E017F0422EFFA
:100BA60075F00CA4249DF582E43400F583E543F04A
:100BB600A3E544F0EF75F00CA4249FF582E434001D
:100BC600F583E548F0A3E549F0EF75F00CA424A100
:100BD600F582E43400F583E54AF0A3E54BF0EF75C2
:100BE600F00CA424A4F582E43400F583E54CF0EF80
:100BF60075F00CA424A3F582E43400F583E4F0EF49
:100C060075F00CA424A5F582E43400F583E4F0EF36
:100C160075F00CA424A6F582E43400F583EBF0A36A
:050C2600EAF0A3E9F073
:010C2B0022A6
:0F14F800E4F548F549F54AF54B850D4C020B72AA
:100D6B00EF75F00CA4249DF582E43400F583E0FCD0
:100D7B00A3E04C7007750E02D20A8002C20AEF750F
:100D8B00F00CA4249DF582E43400F583E4F0A3F089
:100D9B00EF75F00CA4249FF582E43400F583E4F0A6
:100DAB00A3F0EF75F00CA424A1F582E43400F583D5
:100DBB00E4F0A3F0EF75F00CA424A3F582E4340067
:100DCB00F583E4F0EF75F00CA424A5F582E4340070
:100DDB00F583E4F0EF75F00CA424A6F582E434005F
:0A0DEB00F583E4F0A3F0A3F0A20AE0
:010DF50022DB
:1013C000D3E5179400E51694004008E5171517704B
:1013D000021516E513F445127004F512F513051302
:0713E000E513700205122263
:1005E100E4F5631213C0E4F563C3E5639404748016
:1005F10094804003020732E56375F00CA4249DF555
:1006010082E43400F583E0FEA3E04E700302072D7F
:10061100E56375F00CA4249FF582E43400F583E0D2
:10062100FEA3E0D39400EE648094804019E56375E5
:10063100F00CA4249FF582E43400F58374FFF5F0F7
:100641001204FB02072DE56375F00CA424A5F582C5
:10065100E43400F583E06019E56375F00CA424A18E
:10066100F582E43400F583E0FEA3E04E7003020757
:100671002DE56375F00CA424A5F582E43400F5831F
:100681007401F0E56375F00CA424A4F582E4340050
:10069100F583E06014E56375F00CA424A3F582E40E
:1006A1003400F583E004F0804DE56375F00CA4247B
:1006B100A6F582E43400F583A3E0FAA3E0AE02FFDD
:1006C100E56375F00CA4249DF582E43400F583E024
:1006D100FCA3E0FDF5828C83120515E56375F00C32
:1006E100A424A1F582E43400F583E0FEA3E04E707A
:1006F10005AF63120D6BE56375F00CA424A1F582BF
:10070100E43400F583E0FEA3E0FFD39400EE94000F
:10071100400280047E007F00E56375F00CA4249FF5
:10072100F582E43400F583EEF0A3EFF005630205F2
:01073100EADD
:0107320022A4
:10136D00E4FEEEC39404748094805008AF06120D11
:10137D006B0E80EEE4F50E53890F438910D2AB75D9
:09138D008DFC758B65C28FD28EB8
:011396002234
:03001B000211AE21
:1011AE00C0E0C0F0C083C082C0D075D000C000C007
:1011BE0001C002C003C004C005C006C007C28F75BF
:1011CE008DFC758B651205E1D007D006D005D004D5
:1011DE00D003D002D001D000D0D0D082D083D0F0B6
:0311EE00D0E0321C
:04001E0043870122F1
:03153000D2AF2215
:0100220022BB
:04000B0002180000D7
:100EF800E51945187016AF90EF25E0FFAD90EDF4B9
:100F08007003FD80027D01EF4DFF801BE590C31348
:100F1800FF7E00AD90ED648F7004FCFD80047C00C2
:100F28007D80EC4EED4FFF8F90AF90EF647F7006A1
:100F3800E5194518600FAF90EF64FE7018E5196465
:100F48000145187010E519451870047F0180027F6B
:0D0F5800007E008004AE18AF198E188F19AE
:010F65002269
:10140E007EFEE4FDEFD3940774809480400122EDBC
:10141E00C39F500AEE25E0FE4306010D80F1EE5209
:02142E0090D359
:011430002299
:1011F100E4FEEEC3940574809480500EEE75F00306
:10120100A42467F8E660030E80E8EEC394057480B9
:101211009480400122EE75F003A42467F8A607EE3E
:0D12210075F003A42468F8A60408A605D300
:01122E00229D
:02116700A907D6
:10116900E4FFFEEEC39405748094805037EE75F069
:1011790003A42467F8E6697028EE75F003A42469CE
:10118900F8E6B5051C18E6B50417EE75F003A424B6
:1011990067F8E4F6EE75F003A42468F8E4F608F6B7
:0411A9000F0E80BFE6
:0111AD00221F
:10143100EFC394037480948040037F0122A807E5E1
:1014410090088002C313D8FC30E0047F0180027F42
:02145100002277
:0410CC008F438D447D
:1010D000E4F545C3E545940574809480503DE545AD
:1010E00075F003A42467F8E66543702BE54575F0B9
:1010F00003A42468F8E6FE08E64E601BE544FD7C88
:1011000000E54575F003A42468F8E6FE08E6F582DC
:0B1110008E83AF43120515054580B823
:01111B0022B1
:100F6600E4781AF6781AE6FFC394037480948050E6
:100F760052121431EF7029781AE6FF2464F8E6C39A
:100F860094FA74809480500574642FF806781AE6F3
:100F9600FD2464F8E6640370257F021210CC801EDF
:100FA600781AE6FD2464F8E6D394037480948040AE
:100FB600057F031210CC781AE62464F8E4F6781A52
:030FC6000680A101
:010FC9002205
:03153300C2802251
:03153600D280223E
:100733004F4B0041542B4349504D4F44453D310DE0
:100743000A0041542B43495053454E440D0A003E81
:1007530000256400504F5354200020485454502F18
:10076300312E310D0A00486F73743A20000D0A00D0
:10077300436F6E74656E742D547970653A2000432F
:100783006F6E74656E742D4C656E6774683A2000E5
:100793000D0A0D0A002076616C75653D0041540D0C
:1007A3000A0041542B43574D4F44455F4445463D52
:1007B300330D0A0041542B43574A41505F44454689
:1007C3003D22536F6D6961725F3247222C22736F32
:1007D3006D696172313132323131220D0A00415477
:1007E3002B43574155544F434F4E4E0D0A00656DF1
:1007F3006265646465642C6D63753D6335312C6E8D
:10080300616D653D00000000000000000000000075
:1008130000000000000000000000000000000000D5
:1008230000000000000000000000000000000000C5
:1008330000000000000000000000000000000000B5
:1008430000000000000000000000000000000000A5
:100853000000000000000000000000000000000095
:0E086300000000000000000000000000000087
:0D1507007B007A00792212133DE4F54222A8
:1014710075985075CDFF75CCFD75CBFF75CAFDD242
:0C148100CCD2CDC2C9C2CBD2CAD2AC22A0
:10145300120478FFFD3395E04D60128F993099FDAA
:0E146300C299C298740129F9E43AFA80E32292
:030023000212DAEC
:0B12DA00C0E0C0D075D000C000C0070D
:1012E50030981BAF99C29874222542F8A60705428B
:0E12F500D3E54294207480948040037542003B
:09130300D007D000D0D0D0E032B8
:061079008B438A44894507
:10107F00C202121507AB43AA44A945121453AF4A33
:10108F00AE4912151485464E85474F8548507B0053
:10109F007A007922120DF6920220021B7FE87E035E
:1010AF0012151485464E85474F8548507B007A00B0
:0C10BF007922120DF69202121507A2020F
:0110CB002202
:10130C00C200AA06A9077BFFC0038B467547077569
:10131C00483375492A754AF8D00312107992002087
:10132C000005E4FF12140E12111C82009200A200A0
:01133C00228E
:10111C00C2017546FF754707754833754903754A13
:10112C00E87BFF7A07793612107992012001057F4E
:10113C000312140E7546FF7547077548527549031F
:10114C00754AE87BFF7A0779451210798201920182
:0A115C002001057F0512140EA20108
:011166002266
:1014E400E0FBA3E0FAA3E0F91214F57BFF7A077995
:0114F4007087
:0314F5000214538B
:100871008E458F46C2008F828E83E5822406F582E3
:10088100E43583F583E0FBA3E0FAA3E0F98B478A23
:1008910048F549E4F54AF54B12148DEF703EE546F3
:1008A1002409F582E43545F583E0FBA3E0FAA3E0F2
:1008B100F9C003C002E546240CF582E43545F58311
:1008C100E0FBA3E0FAA3E08B528A53F554D002D0A7
:1008D100031210238B478A488949D200AB47AA48A3
:1008E100A94912148D754A008F4B7552FF75530734
:1008F100755454854A55854B567B007A00794C12C4
:1009010000827BFF7A0779571214F5854682854567
:1009110083A3A3A3E0FBA3E0FAA3E0F91214F57B00
:10092100FF7A07795D1214F57A0779691214F58552
:1009310046828545831214E4E546240FF582E435A9
:1009410045F583E0FBA3E0FAA3E0F912148DEF6013
:10095100177BFF7A0779731214F5E546240FF582A8
:10096100E43545F5831214E47BFF7A07798212148A
:10097100F57B007A00794C1214F57BFF7A077993A5
:100981001214F5AB47AA48A9491214F5300007AE75
:0609910048AF491209986D
:01099700223D
:061023008B4F8A50895139
:10102900781D7C007D017BFF7A0779F17E007F8046
:10103900120452854F5885505985515A7B017A00BF
:10104900791D12126B7558FF755907755A987B01EE
:101059007A00791D12126B85525885535985545A55
:0F1069007B017A00791D12126B7B017A00791DD1
:011078002255
:100E7B007546FF754707754833754907754AD07B2B
:100E8B00FF7A0779A01210794004E4FF8058754669
:100E9B00FF754707754833754907754AD07BFF7A4D
:100EAB000779A512107940047F03803A7546FF75C8
:100EBB004707754833754927754A107BFF7A0779C1
:100ECB00B712107940047F05801C7546FF754707E4
:100EDB00754833754907754AD07BFF7A0779E1125C
:0D0EEB00107940057F0702140EE4F59022F7
:100CEB000214D0E493A3F8E493A34003F68001F23B
:100CFB0008DFF48029E493A3F85407240CC8C3330A
:100D0B00C4540F4420C8834004F456800146F6DFD8
:100D1B00E4800B0102040810204080900003E47E65
:100D2B00019360BCA3FF543F30E509541FFEE493CD
:100D3B00A360010ECF54C025E060A840B8E493A394
:100D4B00FAE493A3F8E493A3C8C582C8CAC583CABF
:100D5B00F0A3C8C582C8CAC583CADFE9DEE780BE77
:01000F0000F0
:10038200E709F608DFFA8046E709F208DFFA803E5D
:1003920088828C83E709F0A3DFFA8032E309F6084A
:1003A200DFFA8078E309F208DFFA807088828C83B2
:1003B200E309F0A3DFFA806489828A83E0A3F60866
:1003C200DFFA805889828A83E0A3F208DFFA804C40
:1003D20080D280FA80C680D4806980F28033801017
:1003E20080A680EA809A80A880DA80E280CA803380
:1003F20089828A83ECFAE493A3C8C582C8CCC583F8
:10040200CCF0A3C8C582C8CCC583CCDFE9DEE780C7
:100412000D89828A83E493A3F608DFF9ECFAA9F046
:10042200EDFB2289828A83ECFAE0A3C8C582C8CC9C
:10043200C583CCF0A3C8C582C8CCC583CCDFEADEB5
:10044200E880DB89828A83E493A3F208DFF980CC17
:1004520088F0EF60010E4E60C388F0ED2402B40410
:100462000050B9F582EB2402B4040050AF232345B7
:0604720082239003D27307
:10047800BB010689828A83E0225002E722BBFE0282
:09048800E32289828A83E49322B5
:10049100F8BB010DE58229F582E5833AF583E8F0A1
:1004A100225006E92582C8F622BBFE05E92582C84D
:0204B100F22235
:1004B300EF8DF0A4A8F0CF8CF0A428CE8DF0A42E5D
:0204C300FE2217
:1004C500C2D5EC30E709B2D5E4C39DFDE49CFCEE52
:1004D50030E715B2D5E4C39FFFE49EFE120556C36F
:1004E500E49DFDE49CFC800312055630D507C3E46A
:0604F5009FFFE49EFE22C1
:1004FB00C5F0F8A3E028F0C5F0F8E582158270028C
:06050B001583E038F02228
:060511008A838982E47375
:10002600E55E2452F8E6055E22784F3008027852E3
:10003600E475F0011205AB0204782001EB7F2ED2A5
:10004600018018EF540F2490D43440D4FF30050BB0
:10005600EF24BFB41A0050032461FFE55F60021568
:100066005F0562E5627002056130080D784FE47540
:10007600F0011205ABEF0205440213E77403D20840
:100086008003E4C208F55E8B4F8A508951E4F55F20
:10009600F561F562E55F60077F2012006180F57506
:1000A60060FFC202C201C203C204C206C207C2097D
:1000B60012002FFF700D3008057F00120072AF622C
:1000C600AE6122B4255FC2D5C20512002FFF24D02F
:1000D600B40A00501A75F00A785F30D50508B6FFE5
:1000E6000106C6A426F620D5047002D20480D924BF
:1000F600CFB41A00EF5004C2E5D205020272D20252
:1001060080C6D20180C0D20380BCD2D580BAD206C6
:1001160080B47F201200612003077401B55F0040A0
:10012600F1120026FF12006102009AD209D207805E
:1001360095120026FB120026FA120026F94A4B7089
:100146000679437A037BFF20032EE55F602A7E0053
:100156008E8275830012051760060EEE656070F0DC
:10016600C2D5EBC0E0EAC0E0E9C0E0EE1202B9D0C9
:10017600E0F9D0E0FAD0E0FB120478FF60AAEBC009
:10018600E0EAC0E0E9C0E0120061D0E02401F9D065
:10019600E03400FAD0E0FBE5600460DCD560D9808D
:1001A600877BFF7A0279B5D203809C791080027929
:1001B60008C207C2098008D2D5790A8004790AC222
:1001C600D5E560047002F560E4FAFDFEFF12002634
:1001D600FC7B08200213120026FD7B1030010A1258
:1001E6000026FE120026FF7B20EC3382D592D550E6
:1001F60013C3E43001069FFFE49EFEE42002039D44
:10020600FDE49CFCE4CBF8C202EC700CCFCECDCC66
:10021600E824F8F870F38017C3EF33FFEE33FEEDF2
:1002260033FDEC33FCEB33FB994002FB0FD8E9EBD3
:10023600300205F8D0E0C448B202C0E00AEC4D4EE8
:100246004F78207B0070C2EAB5600040BCC0E01267
:1002560002BBD0F0D0E0200204C4C0E0C4B202C0A9
:10026600F012004AD0F0D5F0EB02009A1205BB015D
:10027600375301B15801084C01044201B54F01BD85
:0F0286004401BD49011D4301C35501A74601A70E
:100295004501A747036350010C2D01102E01332B97
:1002A500011423013120034C2A00CC480000012B06
:1002B5003F3F3F00790AA2D5200414300609B91042
:1002C500020404B9080104A2D52007025001042044
:1002D50003689203B55F005034C0E07F20300419F5
:1002E5007F30A20372077206500F120312C203C2B7
:1002F50007C206C2097F30800F300603E9C0E0124D
:100305000061300603D0E0F9D0E0B55FCC300617C8
:100315007F30B9100C1200617F583005077F788057
:1003250003B908031200613003057F2D0200617FC8
:10033500202009F87F2B2007F322920380CF286E17
:10034500756C6C2900D2021200263002F8C20278C0
:100355005F30D50108F60200CC2D504349581200F4
:10036500262403B405004001E490035E9312005275
:0D037500743A120052D204755F040201B107
:10099800EF4E7003020A9B9000CFE07002A3E07054
:1009A80003020A9BCDEFCDCCEECCED24FCFDEC345C
:1009B800FFFC754F007550CD855082854F83E0FA56
:1009C800A3E08A51F55245516011D3E5529FE55194
:1009D8009E500885514F85525080DDE55245516043
:1009E8004A8D828C83A3A3E0FAA3E02FFFEA3EFEA0
:1009F800EF65527003EE65517031855282855183DF
:100A0800A3A3E0FEA3E02404FFE43E8D828C83A32D
:100A1800A38FF01204FB855282855183E0FFA3E087
:100A28008D828C83CFF0A3EFF0800B8D828C83E5D1
:100A380051F0A3E552F0855082854F83A3A3E0FED1
:100A4800A3E02550FFEE354FFEEF2404FFE43EFE01
:100A5800EF6D7002EE6C70308D828C83A3A3E0FE84
:100A6800A3E02404FFE43E855082854F83A3A38F2F
:100A7800F01204FB8D828C83E0FFA3E08550828511
:100A88004F83CFF0A3EFF022855082854F83ECF09F
:040A9800A3EDF022B8
:10051700BB010CE58229F582E5833AF583E0225099
:1005270006E92582F8E622BBFE06E92582F8E222E3
:0D053700E58229F582E5833AF583E49322FD
:10054400BB010689828A83F0225002F722BBFE0196
:02055400F32290
:10055600BC000BBE0029EF8DF084FFADF022E4CC89
:10056600F875F008EF2FFFEE33FEEC33FCEE9DEC52
:10057600984005FCEE9DFE0FD5F0E9E4CEFD22ED98
:10058600F8F5F0EE8420D21CFEADF075F008EF2FE2
:10059600FFED33FD4007985006D5F0F222C398FDD3
:0505A6000FD5F0EA2270
:1005AB00FAE6FB0808E6F925F0F618E6CA3AF62251
:1005BB00D083D082F8E4937012740193700DA3A3CF
:1005CB0093F8740193F5828883E4737402936860E3
:0605DB00EFA3A3A380DFE3
:1013E700EFB40A07740D1213F2740A309811A89912
:1013F700B8130CC2983098FDA899C298B811F63066
:0714070099FDC299F599223D
:0B0010004800CD0000000000000000D0
:10122F00EF4E7008FE7F01ED1D70011C9000CDEE9A
:10123F00F0A3EFF0A3ECF0A3EDF09000CDE0FEA350
:10124F00E0FFF5828E83E4F0A3F0ED24FCFDEC3497
:0C125F00FF8F828E83A3A3F0A3EDF0228A
:00000001FF
