:030000000203F9FF
:0C03F900787FE4F6D8FD758135020440E1
:100694007E047FFC7B007A007900E4F50DF50E758D
:1006A4000F037510E87511011203557E057F6A7BEF
:1006B400007A007900E4F50DF50EF50F75100A7552
:0506C4001101020355C5
:10076F00E5087012E509640270031207BFE509641A
:07077F000370031207C22200
:100786007C077D6F7F021206567C077D6F7F030212
:02079600065605
:100798001206FD1206941207861207BC1202818007
:0107A800FB55
:10072A005389F0438901C2A9E4FDFCC3ED9FEC9E05
:10073A005016758CFC758A18C28DD28C308DFDC20C
:08074A008C0DBD00010C80E3E1
:010752002284
:10075300E4FDEDC39FE49E5012E4FCECC394787473
:0B07630080948050030C80F30D80E7B1
:01076E002268
:10028100E4F508F508C3E5089404748094804003FC
:1002910002034FE50875F009A42406F582E4340051
:1002A100F583E0D3940074809480500302034AE5FF
:1002B1000875F009A42407F582E43400F583E070A1
:1002C1000302034AE50875F009A42400F582E43429
:1002D10000F583E0FEA3E04E606FE50875F009A428
:1002E1002408F582E43400F583E0F97A007B00E527
:1002F1000875F009A42400F582E43400F583E0FEDA
:10030100A3E0FFF5828E8312027FE50875F009A450
:100311002406F582E43400F583E014F0E50875F075
:1003210009A42404F582E43400F583E0FEA3E04E41
:100331007017E50875F009A42406F582E43400F588
:1003410083E07005AF0812048505080202861200D9
:040351002A0207B8BD
:040355008E088F0976
:10035900E4FFEF75F009A42400F582E43400F58385
:10036900E0FCA3E04C600DEFC394047480948050CA
:10037900030F80DEEF640470067519017F0422EF14
:1003890075F009A42400F582E43400F583E508F04A
:10039900A3E509F0EF75F009A42402F582E434001D
:1003A900F583E50DF0A3E50EF0EF75F009A424043B
:1003B900F582E43400F583E50FF0A3E510F0EF755D
:1003C900F009A42407F582E43400F583E511F0EF80
:1003D90075F009A42406F582E43400F583E4F0EF0E
:0F03E90075F009A42408F582E43400F583E9F0E7
:0103F80022E2
:0F07A900E4F50DF50EF50FF51085181102035547
:10048500EF75F009A42400F582E43400F583E0FC5F
:10049500A3E04C7007751902D2018002C201EF7505
:1004A500F009A42400F582E43400F583E4F0A3F018
:1004B500EF75F009A42402F582E43400F583E4F035
:1004C500A3F0EF75F009A42404F582E43400F58364
:1004D500E4F0A3F0EF75F009A42406F582E43400F6
:1004E500F583E4F0EF75F009A42408F582E43400FF
:0604F500F583E4F0A20112
:0104FB0022DE
:03002B0002002EA2
:10002E00C0E0C0F0C083C082C0D075D000C000C098
:0D003E0001C002C003C004C005C006C00719
:10004B00751200C2CF751200C3E51294047480942C
:10005B00804003020154E51275F009A42400F582D7
:10006B00E43400F583E0FEA3E04E700302014FE59C
:10007B001275F009A42402F582E43400F583E0FE46
:10008B00A3E0D39400EE94004019E51275F009A497
:10009B002402F582E43400F58374FFF5F012026557
:1000AB0002014FE51275F009A42407F582E4340030
:1000BB00F583E06014E51275F009A42406F582E4DB
:1000CB003400F583E004F0804BE51275F009A424AD
:1000DB0008F582E43400F583E0F97A007B00E51241
:1000EB0075F009A42400F582E43400F583E0FEA347
:1000FB00E0FFF5828E8312027FE51275F009A424CE
:10010B0004F582E43400F583E0FEA3E04E7005AF06
:10011B0012120485E51275F009A42404F582E43467
:10012B0000F583E0FEA3E0FFD39400EE94004014AF
:10013B00E51275F009A42402F582E43400F583EE90
:09014B00F0A3EFF00512020053CD
:10015400D007D006D005D004D003D002D001D000FF
:0B016400D0D0D082D083D0F0D0E032A9
:1006FD00E4FEEEC39404748094805008AF06120497
:10070D00850E80EEE4F51975C804F5C975CDFC7537
:0C071D00CBFC75CC1875CA18D2ADD2CA3E
:0107290022AD
:0407B8004387012250
:0307BC00D2AF2297
:01002A0022B3
:0400250002210000B4
:1004FC00E52245217016AF90EF25E0FFAD90EDF4AD
:10050C007003FD80027D01EF4DFF801BE590C3134E
:10051C00FF7E00AD90ED648F7004FCFD80047C00C8
:10052C007D80EC4EED4FFF8F90AF90EF647F7006A7
:10053C00E5224521600FAF90EF64FE7018E5226450
:10054C000145217010E522452170047F0180027F56
:0D055C00007E008004AE21AF228E218F2290
:01056900226F
:10065600E4FEEEC3940574809480500EEE75F003AC
:10066600A42424F8E660030E80E8EEC394057480A3
:100676009480400122EE75F003A42424F8A607EE28
:0D06860075F003A42425F8A60408A605D3EA
:010693002244
:0205CA00A9077F
:1005CC00E4FFFEEEC39405748094805037EE75F012
:1005DC0003A42424F8E6697028EE75F003A42426FD
:1005EC00F8E6B5051C18E6B50417EE75F003A4245F
:1005FC0024F8E4F6EE75F003A42425F8E4F608F6E6
:04060C000F0E80BF8E
:0106100022C7
:10000300EFC394037480948040037F0122A807E523
:1000130090088002C313D8FC30E0047F0180027F84
:020023000022B9
:1006C9008F0C152315231523A90C7A007B00A82369
:1006D9007C007D007E007F0312023FE50C2402F8B6
:1006E900E675F003A42425F8E6FE08E6FFF5828EF8
:0406F9008302027FF7
:040611008F098D0AB6
:10061500E4F50BC3E50B9405748094805032E50B2B
:1006250075F003A42424F8E665097020E50B75F040
:0C06350003A42425F8E6FE08E64E601041
:100641007834A60918A60A7835A60B7F331206C995
:04065100050B80C352
:010655002282
:10056A00E4F508C3E5089403748094805051AF08F9
:10057A00120003EF7028741D2508F8E6C394FA7474
:10058A008094805006741D2508F806741D2508F805
:10059A00E664037026AD087F02120611801D741DE1
:1005AA002508F8E6D39403748094804007AD087F49
:0F05BA0003120611741D2508F8E4F6050880A445
:0105C900220F
:0307BF00C28022D3
:0307C200D28022C0
:10040500020798E493A3F8E493A34003F68001F26E
:1004150008DFF48029E493A3F85407240CC8C333F8
:10042500C4540F4420C8834004F456800146F6DFC7
:10043500E4800B0102040810204080900025E47E32
:10044500019360BCA3FF543F30E509541FFEE493BC
:10045500A360010ECF54C025E060A840B8E493A383
:10046500FAE493A3F8E493A3C8C582C8CAC583CAAE
:10047500F0A3C8C582C8CAC583CADFE9DEE780BE66
:0100290000D6
:10016F00E709F608DFFA8046E709F208DFFA803E72
:10017F0088828C83E709F0A3DFFA8032E309F6085F
:10018F00DFFA8078E309F208DFFA807088828C83C7
:10019F00E309F0A3DFFA806489828A83E0A3F6087B
:1001AF00DFFA805889828A83E0A3F208DFFA804C55
:1001BF0080D280FA80C680D4806980F2803380102C
:1001CF0080A680EA809A80A880DA80E280CA803395
:1001DF0089828A83ECFAE493A3C8C582C8CCC5830D
:1001EF00CCF0A3C8C582C8CCC583CCDFE9DEE780DD
:1001FF000D89828A83E493A3F608DFF9ECFAA9F05C
:10020F00EDFB2289828A83ECFAE0A3C8C582C8CCB1
:10021F00C583CCF0A3C8C582C8CCC583CCDFEADECA
:10022F00E880DB89828A83E493A3F208DFF980CC2C
:10023F0088F0EF60010E4E60C388F0ED2402B40425
:10024F000050B9F582EB2402B4040050AF232345CC
:06025F0082239001BF7331
:10026500C5F0F8A3E028F0C5F0F8E5821582700224
:060275001583E038F022C1
:06027B008A838982E4730E
:00000001FF
