:03000000020128D2
:0C012800787FE4F6D8FD75812802016F95
:04002500021C0000B9
:1001B400E51D451C7016AF90EF25E0FFAD90EDF402
:1001C4007003FD80027D01EF4DFF801BE590C3139A
:1001D400FF7E00AD90ED648F7004FCFD80047C0014
:1001E4007D80EC4EED4FFF8F90AF90EF647F7006F3
:1001F400E51D451C600FAF90EF64FE7018E51D64AB
:1002040001451C7010E51D451C70047F0180027FB0
:0D021400007E008004AE1CAF1D8E1C8F1DEF
:0102210022BA
:100003001203787E017FB47527017BE87A03E4FD50
:0C001300FC12028D1203EE12022280FB90
:1003A5005389F0438901C2A9E4FDFCC3ED9FEC9E8E
:1003B5005016758CFC758A18C28DD28C308DFDC295
:0803C5008C0DBD00010C80E36A
:0103CD00220D
:1003CE00E4FDEDC39FE49E5012E4FCECC3947874FC
:0B03DE0080948050030C80F30D80E73A
:0103E90022F1
:10022200E4F521F521C3E5219402748094805055B0
:10023200E52175F008A4240EF8E6D39400748094A6
:1002420080403EE52175F008A4240FF8E66032E50F
:100252002175F008A42408F8E6FE08E6AA06F912B9
:10026200001FE52175F008A4240EF816E52175F0AB
:1002720008A4240CF8E6FE08E64E7005AF2112022F
:0B028200F8052180A01203410203EAEE
:04028D008E218F220D
:10029100E4FFEF75F008A42408F8E6F58308E645C5
:1002A10083600DEFC394027480948050030F80E249
:1002B100EF640270067518017F0222EF75F008A441
:1002C1002408F8A62108A622EF75F008A4240AF84C
:1002D100A60408A605EF75F008A4240CF8A60208E8
:1002E100A603EF75F008A4240FF8A627EF75F00810
:0602F100A4240EF8E4F65F
:0102F70022E4
:1002F800EF75F008A42408F8E6FC08E64C700775CA
:100308001802D2008002C200EF75F008A42408F891
:10031800E4F608F6EF75F008A4240AF8E4F608F6FF
:10032800EF75F008A4240CF8E4F608F6EF75F00869
:08033800A4240EF8E4F6A20073
:01034000229A
:03002B0002002EA2
:10002E00C0E0C0F0C083C082C0D075D000C000C098
:0D003E0001C002C003C004C005C006C00719
:10004B00752800C2CF752800C3E5289402748094EC
:10005B0080400302010DE52875F008A42408F8E69A
:10006B00FE08E64E7003020108E52875F008A4248B
:10007B000AF8E6FE08E64E7074E52875F008A4242D
:10008B000FF8E6600CE52875F008A4240EF806803E
:10009B003BE52875F008A42408F8E6FE08E6AA0656
:1000AB00F912001FE52875F008A4240EF816E528B0
:1000BB0075F008A4240CF8E6FE08E64E700EE52851
:1000CB0075F008A42408F87600087600E52875F08A
:1000DB0008A4240CF8E6FE08E6FF4E6020E5287520
:1000EB00F008A4240AF8A60608A6078010E52875D0
:1000FB00F008A4240AF808E6161870011605280261
:02010B0000539F
:10010D00D007D006D005D004D003D002D001D00046
:0B011D00D0D0D082D083D0F0D0E032F0
:10037800E4FEEEC39402748094805008AF06120223
:10038800F80E80EEE4F51875C804F5C975CDFC754E
:0C039800CBFC75CC1875CA18D2ADD2CAC7
:0103A4002236
:0403EA004387012222
:0303EE00D2AF2269
:10034100E5186519601BC374FF9518F5A085181988
:10035100E5186007751A17751B7022E4F51AF51B6D
:1003610022E51B451A600FE51B151B7002151A14B7
:07037100451A7002F5182285
:10013400020003E493A3F8E493A34003F68001F2DE
:1001440008DFF48029E493A3F85407240CC8C333CC
:10015400C4540F4420C8834004F456800146F6DF9B
:10016400E4800B0102040810204080900025E47E06
:10017400019360BCA3FF543F30E509541FFEE49390
:10018400A360010ECF54C025E060A840B8E493A357
:10019400FAE493A3F8E493A3C8C582C8CAC583CA82
:1001A400F0A3C8C582C8CAC583CADFE9DEE780BE3A
:0100290000D6
:06001F008A838982E4736C
:00000001FF
