:03000000020121D9
:0C012100787FE4F6D8FD758128020168A3
:05038900C100011C0091
:0A037F00200006D200B290C2002256
:10000300200024D200E4F51C7590F07FF47E0112E9
:10001300031F75900F7FF47E0112031F051CE51C5F
:07002300C3940340E3C20097
:01002A0022B3
:1002F3001203487E037F7FE4F5277BE87A03FDFC46
:100303001201AD7E007F037527017B207A4EE4FD49
:0C031300FC1201AD12039912021280FBD3
:10031F005389F0438901C2A9E4FDFCC3ED9FEC9E14
:10032F005016758CFC758A18C28DD28C308DFDC21B
:08033F008C0DBD00010C80E3F0
:010347002293
:10036C00E4FDEDC39FE49E5009E4FC0CBC78FC0D4D
:02037C0080F00F
:01037E00225C
:10021200E4F521F521E52175F008A4240EF8E6D3D2
:100222009400403EE52175F008A4240FF8E6603200
:10023200E52175F008A42408F8E6FE08E6AA06F906
:1002420012038FE52175F008A4240EF816E5217536
:10025200F008A4240CF8E6FE08E64E7005AF211261
:1002620002730521E521C3940240AA1202BC0203D3
:0102720095F6
:0401AD008E218F22EE
:1001B100E4FFEF75F008A42408F8E6F58308E645A6
:1001C100836009EFC3940250030F80E6BF020675F6
:1001D10018017F0222EF75F008A42408F8A621086F
:1001E100A622EF75F008A4240AF8A60408A605EFD4
:1001F10075F008A4240CF8A60208A603EF75F00810
:10020100A4240FF8A627EF75F008A4240EF8E4F64D
:0102110022CA
:10027300EF75F008A42408F8E6FC08E64C7007754F
:100283001802D2018002C201EF75F008A42408F815
:10029300E4F608F6EF75F008A4240AF8E4F608F685
:1002A300EF75F008A4240CF8E4F608F6EF75F008EF
:0802B300A4240EF8E4F6A201F8
:0102BB002220
:03002B0002002EA2
:10002E00C0E0C0F0C083C082C0D075D000C000C098
:0D003E0001C002C003C004C005C006C00719
:10004B00752800C2CF752800E52875F008A4240890
:10005B00F8E6FE08E64E70030200FAE52875F00894
:10006B00A4240AF8E6FE08E64E7074E52875F0083D
:10007B00A4240FF8E6600CE52875F008A4240EF80C
:10008B0006803BE52875F008A42408F8E6FE08E690
:10009B00AA06F912038FE52875F008A4240EF816AA
:1000AB00E52875F008A4240CF8E6FE08E64E700E61
:1000BB00E52875F008A42408F87600087600E528F2
:1000CB0075F008A4240CF8E6FE08E6FF4E6020E568
:1000DB002875F008A4240AF8A60608A6078010E5E0
:1000EB002875F008A4240AF808E6161870011605FE
:0B00FB0028E528C394025003020053C4
:10010600D007D006D005D004D003D002D001D0004D
:0B011600D0D0D082D083D0F0D0E032F7
:10034800E4FEAF061202730EBE02F7E4F51875C894
:1003580004F5C975CDFC75CBFC75CC1875CA18D2D7
:03036800ADD2CA49
:01036B00226F
:040395004387012277
:03039900D2AF22BE
:1002BC00E5186519601BC374FF9518F5A08518190E
:1002CC00E5186007751A17751B7022E4F51AF51BF3
:1002DC0022E51B451A600FE51B151B7002151A143D
:0702EC00451A7002F518220B
:10012D000202F3E493A3F8E493A34003F68001F2F3
:10013D0008DFF48029E493A3F85407240CC8C333D3
:10014D00C4540F4420C8834004F456800146F6DFA2
:10015D00E4800B0102040810204080900389E47EA6
:10016D00019360BCA3FF543F30E509541FFEE49397
:10017D00A360010ECF54C025E060A840B8E493A35E
:10018D00FAE493A3F8E493A3C8C582C8CAC583CA89
:10019D00F0A3C8C582C8CAC583CADFE9DEE780BE41
:01038E00006E
:06038F008A838982E473F9
:00000001FF
